:100000000C940A030C9451030C9451030C9419138F
:100010000C9451030C9451030C9451030C94510310
:100020000C9451030C9451030C9475260C9447279F
:100030000C94C4200C9451030C9451030C94510360
:100040000C9451030C9451030C9451030C945103E0
:100050000C9451030C9411210C9451030C945103F2
:100060000C9451030C9451030C9451030C945103C0
:100070000C9451030C9451030C9451030C945103B0
:100080000C9451030C9451030C9451030C945103A0
:100090000C9451030C9451030C9451030C94510390
:1000A0000C9451030C9451030C945103D20FD50FAF
:1000B000DA0FE10FE60FEB0FF00FF50FFA0FFF0F5E
:1000C000041009100B100E101110141017101A1034
:1000D0001C102110BF16BF16F116F1163E1772182C
:1000E000721872185C17F117021802186218721849
:1000F00072186B180E190E192019201917192019CA
:10010000201920190E190E191C19201920191C1953
:10011000B427DB27D328DB27D32827284A28D3284E
:10012000A128B02829001E001F0020002100220065
:10013000000000002B0014001A0008001500170032
:1001400000000000E00004001600070009000A009B
:1001500000000000E1001D001B0006001900050062
:100160000000000000000151E200E3002C0000004C
:1001700000000000230024002500260027002D0099
:100180002E0031001C0018000C00120013002F007C
:10019000300035000B000D000E000F00330034005E
:1001A00028002A0011001000360037003800E50052
:1001B000010000002800E7000000E60002510000F6
:1001C0000000000001003A003B003C003D003E0002
:1001D0000000000001000100010001000100010019
:1001E0000000000001000100010001000100010009
:1001F00000000000010001000100010001000100F9
:1002000000000000000001000100010001000000EA
:10021000000000003F004000410042004300440055
:100220004500010001000100010001000100010082
:10023000010001005000510052004F000100010078
:1002400001002A000100010001000100010001007D
:100250000100000001000100000001000100000099
:10026000000000000000000000000000000000008E
:10027000000000000000000000000000000000007E
:10028000000000000000000000000000000000006E
:10029000000000000000000000000000000000005E
:1002A000000000000000000000000000000000004E
:1002B000000000000000000000000000000000003E
:1002C000000000000000000000000000000000002E
:1002D00000000000F200F100F000F3000000000058
:1002E000000000000000000000000000000000000E
:1002F00000000000000000000000000000000000FE
:100300000000000032190A00047F3F1F64321464A9
:100310003214783C1E1E140A052223252628292A79
:100320002C2D2F3032333536383A3B3D3E40424358
:100330004547494A4C4E5051535557595A5C5E6097
:1003400062646668696B6D6F71737577797B7D7FA9
:1003500081838587898A8C8E90929496989A9C9EA8
:100360009FA1A3A5A7A8AAACAEAFB1B3B4B6B8B9C4
:10037000BBBCBEBFC1C2C3C5C6C7C9CACBCCCDCE2C
:10038000D0D1D2D2D3D4D5D6D7D7D8D9D9DADADB0F
:10039000DBDBDCDCDCDCDCDDDDDDDDDCDCDCDCDC9B
:1003A000DBDBDBDADAD9D9D8D7D7D6D5D4D3D2D2DA
:1003B000D1D0CECDCCCBCAC9C7C6C5C3C2C1BFBEC2
:1003C000BCBBB9B8B6B4B3B1AFAEACAAA8A7A5A32D
:1003D000A19F9E9C9A98969492908E8C8A898785EC
:1003E00083817F7D7B79777573716F6D6B696866CB
:1003F0006462605E5C5A5957555351504E4C4A499D
:1004000047454342403E3D3B3A3836353332302F44
:100410002D2C2A292826252322FFAA7F55400001BA
:1004200001010101010101010202020202020202B4
:100430000203030303030303030404040404040486
:10044000050505050506060606060707070707084A
:10045000080808090909090A0A0A0B0B0B0C0C0CFD
:100460000D0D0D0E0E0E0F0F0F1010111111121297
:1004700013131414151516161717181819191A1A14
:100480001B1B1C1D1D1E1E1F202021222223242475
:10049000252626272829292A2B2C2D2D2E2F3031B1
:1004A0003232333435363738393A3B3C3D3E3F40C3
:1004B0004142434445464748494A4C4D4E4F5051AE
:1004C0005354555658595A5B5D5E5F616264656668
:1004D00068696B6C6D6F7072737577787A7B7D7EEF
:1004E0008082838587888A8C8E8F91939596989A3F
:1004F0009C9EA0A2A3A5A7A9ABADAFB1B3B5B7BA57
:10050000BCBEC0C2C4C6C9CBCDCFD1D4D6D8DBDD2A
:10051000DFE2E4E7E9EBEEF0F3F5F8FAFDFF0403C0
:10052000300000000A03370073006B006200000017
:100530001E03530061006C006900630079006C00C9
:10054000690063005F00410063006900640000000F
:100550000403090409023B00020100A0C8090400C9
:1005600000010301010009211101000122400007DF
:1005700005810308000A09040100010300000009C5
:1005800021110100012232000705820320000A1216
:1005900001100100000008EDFEE136070001020332
:1005A0000105010980A101850319012AB700150180
:1005B00026B700950175108100C0050C0901A10145
:1005C000850419012AA002150126A00295017510C3
:1005D0008100C005010906A101050719E029E715F9
:1005E00000250195087501810295017508810105B5
:1005F00007190029FF150026FF00950675088100E0
:1006000005081901290595057501910295017503E4
:100610009101C00011241FBECFEFDAE0DEBFCDBFD5
:1006200004B603FE27C080912C0390912D03A09166
:100630002E03B0912F038730904BA740B04BD1F4DD
:1006400010922C0310922D0310922E0310922F0360
:1006500014BE84B7877F84BF0FB6F894A8958091A5
:100660006000886180936000109260000FBEE0E03F
:10067000F8E3099511E0A0E0B1E0EAECF4E502C08E
:1006800005900D92A43DB107D9F723E0A4EDB1E0A8
:1006900001C01D92AC32B207E1F70E94A4230C9472
:1006A000632A0C94000081E0089581E008950C9481
:1006B000550308950C9459031F93CF93DF9300D0F3
:1006C00000D01F92CDB7DEB749835A836B83309138
:1006D0004C0289819A81311114C0662359F022237A
:1006E00049F00E94471E182F682F89819A810E9425
:1006F000F01D03C00E941B1E182F69817A81812F73
:1007000004C00E94471E69817A810F900F900F905C
:100710000F900F90DF91CF911F910C941404FC0166
:10072000262F408151816281738184810C945C0306
:10073000CF93DF93EC0160E00E948F03BE01DF9155
:10074000CF910C945A030E94791F811102C00E941C
:1007500019200C942C060C94280608950C94AD03D3
:1007600081E008950C94B003CF93C82F0E94AE038C
:100770008C2F0E94B203CF91089508950E94FC1817
:100780000E94BD032FEF84E39CE021508040904005
:10079000E1F700C000000C9437210F931F93CF9313
:1007A000DF93EC0161E00E948F038C01BE010E9487
:1007B0005703882379F1BE01C8010E94CA1088231B
:1007C00049F1BE01C8010E940B11882319F1BE0135
:1007D000C8010E9436128823E9F0BE01C8010E94B8
:1007E000BC0F8823B9F08A81882369F001158CE554
:1007F000180731F00E3D1C4531F40E9419200AC043
:100800000E94BE0307C0CE01DF91CF911F910F91CF
:100810000C94530380E0DF91CF911F910F910895C5
:1008200080E090E008950895E72FF0E09AE0899F36
:10083000E00DF11D112483E0EE0FFF1F8A95E1F713
:10084000E60FF11DEE0FFF1FEC5DFE4F85919491B9
:100850000895880F991FFC01EC5FFC4F85919491DE
:100860000895CF93DF930E9414040E944305EC0186
:100870008115904508F043C0C11580E4D80708F001
:10088000CBC0C03ED10528F5C03CD10508F0B3C0AF
:10089000C83AD10578F4C53AD10508F0A4C0C130F2
:1008A000D10509F4ECC008F4E8C0C430D10508F063
:1008B000E6C0E3C0CF3BD10508F0DFC0C85AD0E0A6
:1008C000CC0FDD1FCC5CDE4F0990D881C02DD464E5
:1008D000D6C0C11590E2D90750F4C11521E0D20766
:1008E00008F0CDC0C83ED10508F4C9C0C6C0C115C6
:1008F00080E3D80708F086C0CE019F707FC0C11585
:1009000095E5D90708F043C0C11524E5D20708F0E2
:100910009AC0C11582E5D80708F5C11591E5D90738
:1009200008F07DC0CE0174E0969587957A95E1F741
:1009300083709C2F937021E030E002C0220F331FA0
:100940009A95E2F73C68382BCF70C695C69580E241
:10095000C89FE0011124C22BD32B91C09E012370AC
:1009600033278C2F86958695C115D34508F05CC03A
:10097000C1E0D0E002C0CC0FDD1F2A95E2F720E2F3
:10098000829FC0011124C82BD92BDC6878C0C11507
:1009900029E5D207A0F4C11588E5D80708F058C0AA
:1009A000C11596E5D90708F068C08C2F0E94D705BD
:1009B0008F71C82FD0E0DC2FCC27D06260C0C1156A
:1009C0002AE5D20708F449C0CE019056811590421D
:1009D00008F053C08D2F8F710E94D705DD27D0629C
:1009E0008F71D82B4CC0C55AD0E0CE59DE4FC8818C
:1009F000D0E0D06444C0CE01805C91090E942904FB
:100A0000EC013DC0CE019927D3FF03C0EC01D86CA7
:100A100036C0EC01D06C33C0DF70D06A30C0DC2F40
:100A2000CC27C16FD06A2BC0C1E0D0E002C0CC0F90
:100A3000DD1F2A95E2F720E2829FC0011124C82B16
:100A4000D92BDA681CC0DC2FCC27C46FD06A17C042
:100A5000DC2FCC27C06FD06A12C08C2F8F700E9401
:100A6000D70594E0D695C7959A95E1F7CF70D0E079
:100A7000DC2FCC27D069C82B02C0C0E0D0E0CE016B
:100A8000DF91CF9108958238910569F1B0F48133F7
:100A9000910509F46DC048F48932910509F463C0E9
:100AA0008A32910509F469C008958533910509F4E6
:100AB00055C089339105B9F00895833E910569F1D8
:100AC00038F4803E9105B1F0823E910509F1089518
:100AD000863E9105A9F1873E9105B9F1843E9105C5
:100AE00009F064C023C020911D0320FD4FC021FDEB
:100AF0004DC0089580911D0380FD44C080911E0368
:100B000080FF44C080911D0384FD42C083EE4DC030
:100B100080911D0382FF38C0F5CF80911D0382FDB7
:100B200033C080911E0380FD31C0ECCF80911E0345
:100B300081FF32C080911D0384FD2AC087EE35C03D
:100B400080911D0383FF26C0F5CF80911D0383FD97
:100B500021C080911E0381FD1FC0ECCF80911D0339
:100B600085FD1CC01DC080911D0385FD19C016C0E8
:100B700080911D0386FD16C017C080911D0386FD60
:100B800013C010C089E311C082EE0FC080EE0DC00B
:100B900080E00BC086EE09C084EE07C089E205C084
:100BA00085E303C08AE201C081E390E0089590915B
:100BB0001D0392FF0DC0282F2871283019F4877F5C
:100BC000846006C0282F2471243011F48B7F886044
:100BD00093FF0DC0282F2871283119F4877E846176
:100BE00006C0282F2471243111F48B7E8861209156
:100BF0001E0320FF0DC0382F3871383019F4877F5D
:100C0000816006C0382F3171313011F48E7F8860D9
:100C100021FF0DC0282F2871283119F4877E8161AA
:100C200006C0282F2171213111F48E7E886194FD38
:100C3000877E0895E82FF0E0EC51FD4F8081089504
:100C4000089580EA8A95F1F7089508950C94250691
:100C50000C9426060C9425060C942A060895CF932E
:100C6000DF930E94A4078091040180910401811107
:100C700002C095E001C090E09093EF0285E0891BEF
:100C80008093EE02ADE6B1E042E751E061E070E052
:100C90008D91E82FE295EF70F0E021A18F70EB01CC
:100CA00002C0CC0FDD1F8A95E2F7CE019C2F9095F4
:100CB000922391A392A1892B82A34A175B0741F744
:100CC000A5E6B1E04DE651E061E070E08D91E82FDE
:100CD000E295EF70F0E021A18F70EB0102C0CC0F24
:100CE000DD1F8A95E2F7CE019C2F9095922391A368
:100CF00092A1892B82A34A175B0741F7EAEDF2E044
:100D0000A4EEB2E084EE92E011921D928E179F073E
:100D1000D9F785E00E9449070E94A303DF91CF9194
:100D20000C94B8070E948707882309F18091EE028E
:100D300090E08C519D4F0E94E807811114C0809172
:100D4000D4018F5F8093D401863078F0E091EE0279
:100D5000F0E0EC51FD4F80E090E01192019685307B
:100D60009105D9F702C01092D4010C94AB03809185
:100D7000EF0290E08C519D4F0E9407080C942E06C4
:100D80006F927F928F929F92AF92BF92CF92DF929B
:100D9000EF92FF920F931F93CF93DF938DE6882EF0
:100DA00081E0982E0AED12E09FEDA92E92E0B92E77
:100DB000712CCC24C394D12CF40181914F01C82F04
:100DC000C295CF70D0E099A18F70760101C0EE0C72
:100DD0008A95EAF7892F8E2989A38AA16E2C6094BF
:100DE00086218AA30E942106E5E6F1E040E050E07A
:100DF00020E03191A32FA295AF70B0E090968C9136
:100E000090E03F7002C0959587953A95E2F780FD96
:100E100007C08C2D042E01C0880F0A94EAF701C088
:100E200080E0282B4F5F5F4F4830510511F789A1B3
:100E3000682269A28AA1E82AEAA2F801808128171B
:100E400019F0208381E001C080E0782A0F5F1F4FF6
:100E5000A016B10609F0B0CF6091EF0270E06C51BE
:100E60007D4F272D45E08AED92E00E944A070E94BF
:100E70009206872DDF91CF911F910F91FF90EF90F8
:100E8000DF90CF90BF90AF909F908F907F906F90AA
:100E900008950895FF920F931F93CF93DF938C01D2
:100EA000F62ED72FC42F222349F081E08093D7015B
:100EB0000E94F6209093D6018093D5018091D701AE
:100EC0008823C1F08091D5019091D6010E94022122
:100ED000069780F0EF2DFD2FD8014C2F50E0CD016B
:100EE000801B910B841795071CF48D918193F7CF8C
:100EF0001092D701DF91CF911F910F91FF9008952C
:100F000026982E9883B186FB882780F908958091D2
:100F1000D801811112C08091D80080618093D800DF
:100F20008AE18A95F1F700C08091D90080FD02C066
:100F300082E001C081E08093D80181E09091D801E6
:100F4000913009F080E008950E94800780930401A9
:100F50008091040166E0882311F080E001C086E002
:100F60000E94A9080E94870781110C94BF07089569
:100F70000E948707811102C00C94C507089562E0A2
:100F800070E085E091E00C94C71262E070E085E0CB
:100F900091E00C94D0120E94830D882361F080EEC2
:100FA00091E00E94890D81E090E00E94A913892BB5
:100FB00011F40C94860D08958091DF01883039F486
:100FC00060E080EE91E00E94610E1092DF010895D2
:100FD000CF93DF93D82FC92F0E94CB0780E090E0FA
:100FE0000E94A913892B79F4ED2FFC2F80E090E06B
:100FF000DC01A652BE4F2C912193019685309105BC
:10100000B9F781E001C080E0DF91CF910895CF93DF
:10101000DF93D82FC92F0E94DC07ED2FFC2F80E033
:1010200090E02191DC01A652BE4F2C9301968530B1
:101030009105B9F7DF91CF910895EF92FF920F9349
:101040001F93CF93DF93F62E472FE82FF0E0711117
:1010500006C0E25EFB4F6491762F862F72C0272F69
:1010600030E0E25EFB4FE4910E2F10E056E0659F0A
:10107000C0011124CFEFD0E0BE010E9421295BEA1C
:101080005603C001579F900D11248F0D911D8F0D98
:10109000911D982F990F890F7E01E21AF30AE09EA5
:1010A000D001E19EB00DF09EB00D1124489FA0012B
:1010B0001124452F55277E01E41AF50AE09EA00170
:1010C000E19E500DF09E500D11247E01E81AF108AA
:1010D000E29EC001E39E900DF29E900D1124892F97
:1010E0009927C81BD90BC09FC001C19F900DD09FED
:1010F000900D11246230710591F048F4611571056D
:10110000E1F061307105A9F48B2F752F19C064309F
:10111000710561F038F06630710579F00AC0892FE9
:101120007B2F0EC08E2F7B2FE52F0AC08E2F792F9D
:1011300002C0852F7E2FEB2F03C08B2F7E2FE92F30
:101140006E2FDF91CF911F910F91FF90EF90089537
:101150000895E7E1F1E0808361830895CF93DF9301
:10116000762FE901682F842F0E941D0879836883F8
:101170008A83DF91CF910895453B08F044EB0C94AE
:10118000AE088091F002282F269530E02115310518
:1011900019F48170826005C02B32310524F0817012
:1011A00084658093F0028091F302853B18F084EB14
:1011B0008093F302089588E090E00C94C029CF92C8
:1011C000DF92EF92FF926B017C010E94C108B70190
:1011D000A60188E090E0FF90EF90DF90CF900C9414
:1011E000DE29E0EFF2E083E0808311828FEF8283DB
:1011F00084EB83831482A1E3B2E012968C91129760
:10120000836012968C9360817181828193810C94AA
:10121000DF088091F00280FF02C08695089580E08B
:1012200008958091F402833018F48F5F8093F40264
:101230006091F0027091F1028091F2029091F302BC
:101240000C94DF088091F402882319F08150809378
:10125000F4026091F0027091F1028091F20290919B
:10126000F3020C94DF0870E00C942B1060911801CD
:101270008091F00280FF0AC08091170123E0829FD5
:10128000C00111248B509D4F0C943309809119019A
:1012900090911A01891780F7E82FF0E09F01220F43
:1012A000331FE20FF31FEB50FD4F118210821282A9
:1012B0008F5FF0CF9091F00290FF16C090911901CE
:1012C00020911A01921770F4E92FF0E0DF01AA0FC4
:1012D000BB1FEA0FFB1FEB50FD4F818360834283EE
:1012E0009F5FF0CF0C9436090895CF93DF9300D021
:1012F0001F92CDB7DEB79091F00290FF0AC09E0119
:101300002F5F3F4F0E94BC084B8169818A810E94F8
:101310005A090F900F900F90DF91CF910895CF93BE
:10132000DF93EC01EC81F0E0E75EFC4F4491E0EFED
:10133000F2E0628181810E9475098C818F5F8C83CC
:10134000DF91CF910895CF93DF93EC01E0EFF2E0CE
:10135000438162818C810E9475098C818F5F8C83AF
:10136000DF91CF9108950F931F93CF93DF9300D018
:101370001F92CDB7DEB78C018091E80181110AC0C0
:101380009E012F5F3F4F44EB6FEF0E94BC088A81A4
:101390008093E801F8018481813051F028F0823097
:1013A00061F44091E8010AC08091E80140E007C083
:1013B0006091E80140E080E003C040E080E060E050
:1013C0000E945A09F801848190E0019663E070E080
:1013D0000E94352984830F900F900F90DF91CF9159
:1013E0001F910F910895AF92BF92CF92DF92EF922B
:1013F000FF920F931F93CF93DF9300D01F92CDB72F
:10140000DEB7182FF62E042FE22E9091F00290FFF7
:101410007EC0E92FE695AE2FB0E0A958BE4F8C9163
:10142000809331029E7F923061F49E012F5F3F4F87
:10143000812F0E94BC084B8169818A810E945A09D0
:1014400043C0823019F40091F3023EC0863019F493
:101450001091F10239C08930D9F38931A9F5E951E8
:101460008E2F8170D82EE695F0E0E75EFB4FA590B9
:10147000B490C12CBB2460911B01C61618F52C2D0D
:1014800030E0A29EC001A39E900DB29E900D11244B
:1014900070E00E942129812FD11002C0860F01C067
:1014A000861B90911901290F311DA901440F551F69
:1014B000240F351F2B503D4F402F6F2D0E94BC082D
:1014C000C394D9CF0E9436098091F102181308C045
:1014D0008091F202F81204C08091F302081729F0FB
:1014E000809133028260809333021093F102F09274
:1014F000F2020093F302EE2051F06091F00270913D
:10150000F1028091F2029091F3020E94DF080F90A5
:101510000F900F90DF91CF911F910F91FF90EF905F
:10152000DF90CF90BF90AF900895E0EFF2E091810F
:10153000282F438162818AE0890F0C94F30981E0AE
:101540000C94950AE0EFF2E09181282F43816281AB
:1015500086EF890F0C94F30981E00C94A20AE0EF66
:10156000F2E0628121E1620F08F46FEF282F4381DE
:1015700081810C94F30981E00C94AF0AE0EFF2E072
:10158000628121E1621B08F460E0282F43818181A0
:101590000C94F30981E00C94BE0AE0EFF2E0438181
:1015A00021E1420F08F44FEF282F628181810C94D2
:1015B000F30981E00C94CD0AE0EFF2E0438121E1F0
:1015C000421B08F440E0282F628181810C94F309CA
:1015D00081E00C94DC0A20E00C94F309FF920F9355
:1015E0001F93CF93DF93EC01F12C0FEF10E060918C
:1015F0001B01F616F0F4809119012F2D30E0280F11
:10160000311DC901880F991F280F391F2B503D4FDD
:1016100070E0C8010E943529962F8C814091F30219
:101620006091F202F99E800D11240E94BC08F3948F
:10163000DECF0E9436099A818C8190FF02C08F5FB5
:1016400001C081508C83DF91CF911F910F91FF904A
:1016500008958F929F92AF92BF92CF92DF92EF92B6
:10166000FF920F931F93CF93DF93EC018A8180FF4A
:1016700003C0BB24BA9402C0BB24B3948C818111F3
:101680000DC081E0B81206C080911B01815080938B
:10169000EA0102C01092EA0181E08C83A12C4CE0A7
:1016A000942E80911B01A81608F044C08091190166
:1016B000CA2CD12C8601080F111DC801880F991F53
:1016C000080F191F0B501D4FF80111821082128252
:1016D00034E0E32EF12C812C8091EA01880D8D30CD
:1016E0002CF0692D0E941329892F05C087FF03C0A4
:1016F00090911B01890F082E000C990BC816D90672
:1017000091F48091F3028E9DA0018F9D500D1124C4
:10171000559547955595479598016091F2028091AE
:10172000F1020E94BC088B0CF1E0EF1AF108A1F65F
:10173000A394B7CF0E9436098091EA0191E0B912D3
:101740000EC0811107C080911B0181508093EA0176
:101750001C820FC081508093EA01BC820AC090E0D5
:10176000019660911B0170E00E9435298093EA0187
:101770008C83DF91CF911F910F91FF90EF90DF90BD
:10178000CF90BF90AF909F908F9008951F93CF936D
:10179000DF93EC018C81811109C081E08C83109270
:1017A000E90192E09093160180931501809119014F
:1017B00090911A01891770F4E82FF0E09F01220F31
:1017C000331FE20FF31FEB50FD4F11821082128284
:1017D0008F5FF0CF10E060911B011617C0F5E12F6D
:1017E000F0E070E0CF010E94352920911901820FAD
:1017F0002091E901022E000C330B90E0E217F30771
:10180000CCF020911601022E000C330B2E173F074F
:101810008CF09C01220F331F820F931F9C012B50D1
:101820003D4F4091F3026091F2028091F1020E94DB
:10183000BC080BC0FC01EE0FFF1F8E0F9F1FFC01A9
:10184000EB50FD4F1182108212821F5FC4CF0E94A5
:101850003609809115012091E901280F2093E901B3
:1018600090911601980F9093160119165CF4022EB0
:10187000000C330B40911B0150E0415051092417DB
:10188000350734F0819580931501813009F41C826D
:10189000DF91CF911F9108950F931F93CF93DF9303
:1018A0008C01FC0184819581019681709927958333
:1018B0008483C0E0D5E580911B01C81700F58091B5
:1018C00019012C2F30E0280F311DC901880F991FF5
:1018D000280F391F2B503D4F4C2F4695F80184811E
:1018E0009581840F911D81704091F3026091F20205
:1018F0008D9F802D11240E94BC08CF5FDCCFDF912B
:10190000CF911F910F910C9436090F931F93CF9392
:10191000DF93EC0100E010E080911B01282F30E004
:101920000217130724F5909119019801290F311D11
:10193000A901440F551F240F351F2B503D4F86958D
:1019400090E04C81081719071CF4442331F002C0C1
:10195000411103C04091F30201C040E06091F202E6
:101960008091F1020E94BC080F5F1F4FD5CF0E94EB
:1019700036098C8190E00196817099278C83DF91E4
:10198000CF911F910F9108958F929F92AF92BF9226
:10199000CF92DF92EF92FF920F931F93CF93DF933B
:1019A000FC01B280948081E0848300E015E05BE478
:1019B000A52E88248394EE24EA94F12C7BE4C72E90
:1019C000D12C80911B01081708F08FC0C02FD0E0E8
:1019D0001C9FF0011D9FF00D1124E251FE4F91104C
:1019E00003C01382128267C02381222389F1215010
:1019F00023833481332319F09A2D921B01C0922F37
:101A00008091F3021C9FF0011D9FF00D1124E25103
:101A1000FE4F899FC0011124B6010E9421296283D3
:101A2000211104C0332311F01482A38222E02B156C
:101A300008F441C01C9FF0011D9FF00D1124E251DC
:101A4000FE4F8091F10280838091F202818333C046
:101A50000E949B298230914074F582E08B1530F40E
:101A60000E949B29B7010E94352902C08091F10292
:101A70001C9FF0011D9FF00D1124E251FE4F808349
:101A800022E02B1558F40E949B292091F202269502
:101A9000622F70E00E943529820F02C08091F2020D
:101AA0001C9FF0011D9FF00D1124E251FE4F818318
:101AB0001282A3828482809119019E01280F311D18
:101AC000C901880F991F280F391F2B503D4F1C9FAC
:101AD000F0011D9FF00D1124E251FE4F4281618102
:101AE00080810E94BC080F5F6CCFDF91CF911F9166
:101AF0000F91FF90EF90DF90CF90BF90AF909F90AD
:101B00008F900C943609809133020895109233021D
:101B1000089525E0E0EFF2E0DC0101900D922A95B6
:101B2000E1F7209131023091320240913302FC0101
:101B300025833683478308956091F002669570E0AF
:101B40004BE050E08CE191E00E94AB29892B19F425
:101B500081E0809332020E94F62090932B028093C2
:101B60002A02809133028460809333020895E1E376
:101B7000F2E0118282818460828308959091F00264
:101B800090FF3AC09170811102C0926006C08B3202
:101B900010F0946502C0880F982B9093F00280910A
:101BA0003302816080933302662351F06091F0022A
:101BB0007091F1028091F2029091F3020E94DF088D
:101BC0006091F002669570E04BE050E08CE191E0AE
:101BD0000E94AB29892B19F00E94B70D02C00E9408
:101BE0009C0D81E080932D024091F3026091F202FE
:101BF0008091F1020C94EB0A0895682F9091F00205
:101C0000969581E0890F8B3208F081E00C94BE0D2F
:101C100081E00C94FD0D682F9091F00296958FEF66
:101C2000890F09F48AE20C94BE0D81E00C940B0E2E
:101C300061E00C94BE0DE0EFF2E080818160808372
:101C400086950C94180E60E00C94BE0DE0EFF2E067
:101C500080818E7F808360817181828193810E94E7
:101C6000DF080E94B70DE1E3F2E0828181608283A8
:101C70002FEF80E792E0215080409040E1F700C0D4
:101C800000000C9436098091F00280FD0C94260E21
:101C90000C941B0EE0EFF2E080818E7F80830E9427
:101CA000B70DE1E3F2E08281816082832FEF80E76C
:101CB00092E0215080409040E1F700C000000C9479
:101CC00036091F93CF93DF93EC01162F8F8180FF8E
:101CD0000FC0888180FF0AC08091F00281608093EC
:101CE000F002888186950E94BE0D02C00E944A0EB5
:101CF0008F8181FF06C0212F4B816A8189810E94DB
:101D0000F3098F8182FF08C08E81882319F00E9419
:101D10009C0D02C00E94B70D8F8183FF03C081E03C
:101D200080932D02DF91CF911F9108958091300211
:101D3000811133C00E94791F811104C00E941920B3
:101D40000E94F1080E94DB086093F0027093F10298
:101D50008093F2029093F302809133028360809328
:101D600033026E7F61F40E94F1080E94DB086093E9
:101D7000F0027093F1028093F2029093F3020E94BA
:101D8000C1080E94B70D8091F00280FF03C08695C4
:101D90000E94230E81E0809330020895EF92FF921B
:101DA0000F931F93CF93DF9380913202882309F41E
:101DB000C1C080913102E091F002E695E81BE0930A
:101DC0002C02823049F4F0E0EB5EFC4FE491CE2F20
:101DD000D0E00FE819E059C0863049F4F0E0EE5E3B
:101DE000FC4FE491CE2FD0E003EA19E04EC08930D9
:101DF00051F4E695F0E0E15FFC4FE491CE2FD0E0A6
:101E00000EEE1AE042C08F3051F4E695F0E0E45F48
:101E1000FC4FE491CE2FD0E009E21BE036C08531C3
:101E200049F4F0E0E75FFC4FE491CE2FD0E006EC00
:101E30001BE02BC08831D9F0833239F4E7E0F3E0BE
:101E4000C591D49103EB19E020C08432A9F085320A
:101E5000C1F48E2F63E00E940729E92FF0E0EC5FC8
:101E6000FC4FE491CE2FD0E004EC1CE00EC0C8EE95
:101E7000D3E00CE41CE009C0C4EFD1E005E81CE0AD
:101E800004C0C0EDD7E008EA18E080912D02882355
:101E900089F010922D020E94F6209E012095309527
:101EA000820F931F90932B0280932A0210922F028D
:101EB00010922E0280912A0290912B020E94022100
:101EC0008C179D07B8F18091ED018823B1F0109235
:101ED000ED018091EB019091EC010E940221803391
:101EE000954758F00E94F6209093EC018093EB0107
:101EF00080913302886080933302E0902E02F0904C
:101F00002F02E0912A02F0912B02CE0FDF1FD09317
:101F10002B02C0932A028AE292E0F801099580918F
:101F20002E0290912F02892B29F4EF2819F081E0DD
:101F30008093ED01DF91CF911F910F91FF90EF9072
:101F40000895882311F0FA0101C0FB010994CF9391
:101F5000DF93C82FD62F0E9409098C1740F00E94EA
:101F600009098D1720F4DF91CF910C94080E8C2F66
:101F7000DF91CF910C94180E1F93CF93DF93FB0149
:101F80001281111163C0EC010E94C81E8272FE0111
:101F9000E25CFC45E431F10508F057C0EA5AFF4F16
:101FA0000C9449290E94430E51C045E15EE068E06F
:101FB0007EE004C048E05EE065E17EE00E94A10FA3
:101FC00045C04CEA5AE06FE97AE0F8CF4FE95AE0B1
:101FD0006CEA7AE0F3CF4AEC5AE06BEB7AE0EECFB2
:101FE0004BEB5AE06AEC7AE0E9CF48EE5AE069ED53
:101FF0007AE0E4CF49ED5AE068EE7AE0DFCF42E2E2
:1020000059E061E179E0DACF41E159E062E279E05B
:10201000D5CF81E017C065E082E010C068E086E0BF
:102020000DC06EE089E00AC064E18FE007C067E19F
:1020300085E104C088E106C062E289E10E94A70F41
:1020400005C083E20E94180E01C011E0812FDF91CC
:10205000CF911F910895539A2BB1277F3BB13860E0
:102060004FB7F894FC01CB01880F991F680F791FB7
:102070006E0F7F1FE617F70789F0819198E03BB953
:10208000000000C087FF2BB9880F000000C000C00F
:1020900000C02BB900C09A9591F7ECCF4FBF8FE5E8
:1020A00094E00197F1F700C0000008950F931F938B
:1020B000CF93DF93C62FD42F122FFC018281882368
:1020C000C9F0609336020E94F62090933502809307
:1020D000340280E28C0F883008F057C0C77081E06E
:1020E00001C0880FCA95EAF7DF91CF911F910F9138
:1020F0000C947B1680913602681330C080913402B4
:10210000909135020E940221883C910538F500E249
:102110000D0FCD17B9F080E28C0F883040F4C770F6
:1021200081E001C0880FCA95EAF70E948216083044
:1021300028F581E09D2F977001C0880F9A95EAF7E6
:102140000E947B16812F0E9468160830F0F4D77029
:1021500081E001C0880FDA95EAF70AC080E28C0FAF
:10216000883098F4C77081E001C0880FCA95EAF7FB
:10217000DF91CF911F910F910C948216812FDF91E7
:10218000CF911F910F910C946816DF91CF911F9101
:102190000F9108959C01CB01233F4CE53407F9F0E2
:1021A00078F4283DFCE53F07B9F0293D4CE53407BC
:1021B00011F1273D3C4531F526E241EE61EE1EC0AE
:1021C000253FFCE53F0799F070F0263F3C45D1F4F0
:1021D00027E245EE66EE12C027E245EE0EC026E28B
:1021E00041EE60EE0BC027E245EE64EE07C026E24A
:1021F00041EE62EE03C028E241E065EE0E94561017
:1022000080E00895FC018281882319F01092360243
:10221000089581E00895CF93DF93EC01FB01828163
:10222000882309F41FC1C230FCE5DF0708F41BC195
:10223000C6319CE5D90738F09E012A5F3C4529301C
:10224000310508F010C10E948C1F90931E038093EB
:102250001D03C031ECE5DE0709F4C3C008F041C03E
:10226000C8308CE5D80709F49AC0F0F4C430ECE526
:10227000DE0709F487C068F4C2308CE5D80709F49A
:1022800077C0C330DC4509F0E3C080911D03826054
:1022900076C0C630ECE5DE0709F46EC008F07BC0FE
:1022A00080911D0388606BC0CC308CE5D80709F4A1
:1022B00085C068F4CA30ECE5DE0709F474C008F0A4
:1022C00079C00E94FC1880911D03806858C0CE30F0
:1022D0008CE5D80709F476C008F07FC080911D0313
:1022E0008BC0CB3FECE5DE0709F44FC018F5C331D6
:1022F0008CE5D80709F47DC078F4C131ECE5DE0740
:1023000009F473C0C231DC4509F0A2C00E94FC1878
:1023100080911D038F7733C0C5318CE5D80709F450
:1023200072C008F486C0CA3FDC4509F091C08091B4
:102330001E033EC0CF3FFCE5DF0709F45FC058F441
:10234000CD3F9CE5D90709F444C008F43FC0809113
:102350001E0382602DC0C130FDE5DF0709F475C0A2
:1023600008F45DC0C230DD4509F072C080E06EC087
:1023700080911D03816003C080911D038061809363
:102380001D0366C080911D0311C080911E038260F1
:1023900080931E035DC080911D038062F0CF809109
:1023A0001D038064ECCF80911D0388608460E7CFBB
:1023B0008160EECF80911D038E7FE1CF80911D0360
:1023C0008D7FDDCF80911D03877FD9CF80911E0344
:1023D00018C080911E038D7FDBCF80911D038F7EFF
:1023E000CECF80911D038F7DCACF80911D038F7B3F
:1023F000C6CF80911D03877F8B7FC1CF80911E0345
:102400008D7F8E7FC5CF80911D0382FB222720F90F
:1024100091E0922790FB82F990FB83F9B0CF8091F5
:102420001E03982F909591708E7F892B90FB81F9D8
:10243000AFCF0E94FC1880911D0387FB222720F953
:1024400091E0922790FB87F99ACF81E00E941B20B0
:1024500080911D0390911E030E949D1F0E94FC18F5
:1024600080E001C081E0DF91CF910895CF93DF93A9
:1024700086319C4541F5EB010E94C81E982F8A8148
:102480002091270130912801882379F09A7A81E000
:1024900009F480E080933702911102C069E201C023
:1024A00065E3C9010E9462200AC080913702811150
:1024B00002C069E201C065E3C9010E9464200E9474
:1024C000161F80E001C081E0DF91CF9108958EE179
:1024D0004A9B02C08150E1F74A9BFECF08955A986B
:1024E00080E28A95F1F75A9A0895FC012AE02A952C
:1024F000F1F790E020E080E031E0261779F040E14C
:102500004A95F1F7880F4A9B02C08160932700C06B
:10251000000040E14A95F1F72F5FEFCF20E12A95C7
:10252000F1F729B100C0000030E13A95F1F722FB44
:10253000222720F992272081920F90830895EF920D
:10254000FF920F931F93CF93DF931F92CDB7DEB708
:1025500019828C017C01E60EF11C0E151F0559F045
:102560000E94671268E0CE0101960E947512F80180
:1025700081938F01F2CF81E09981911180E00F90DA
:10258000DF91CF911F910F91FF90EF90089590935D
:102590003A028093390260933802529A5A9A089507
:1025A00090933A02809339026093380252985A9A73
:1025B000EA9AE9E6F0E080818F7C8083089561509B
:1025C00091E001C0990F6A95EAF720E031E0992384
:1025D00061F0492F482319F05A9A232701C05A98CD
:1025E00040E24A95F1F79695F2CF222311F05A9ADC
:1025F00001C05A9880E28A95F1F75A980895FF929F
:102600000F931F93CF93DF93EC018C01060F111DE5
:10261000C017D10741F0F9900E946F1268E08F2D2A
:102620000E94DF12F5CFDF91CF911F910F91FF90A4
:1026300008951F920F920FB60F9211240F931F93BC
:102640002F933F934F935F936F937F938F939F93BA
:10265000AF93BF93EF93FF93CF93DF931F92CDB7C9
:10266000DEB719820E94671267E0CE0101960E94D0
:102670007512382F369536953695932F9695957019
:10268000232F2570920F292F23709695969587708A
:10269000920F891348C08981811145C08091380209
:1026A000831708F440C080E18A95F1F75A9A529A4C
:1026B000A2E0AA95F1F700C00091390210913A0208
:1026C000B8E03B9F000D111D11245A98F801658157
:1026D000662321F0868197810E94FF120E946F126B
:1026E000F0E1FA95F1F75A9852985A9A80E18A9552
:1026F000F1F7D80112966C911297662369F0139640
:102700008D919C9114970E949F12D801ED91FC919C
:10271000811105C082E004C0D801ED91FC9188E0F0
:1027200080830E9467120F90DF91CF91FF91EF910C
:10273000BF91AF919F918F917F916F915F914F91D9
:102740003F912F911F910F910F900FBE0F901F90EF
:1027500018950F931F93CF93DF932091380230E0A9
:10276000281739070CF471C09C0193E0220F331F26
:102770009A95E1F7C0913902D0913A02C20FD31F66
:10278000F894529A5A9845E04A95F1F70000982F2C
:10279000969595708570890F982F9370869586957C
:1027A000890F8901082B0E946F1284E08A95F1F746
:1027B00000C067E0802F0E94DF1240E14A95F1F7E8
:1027C00052985A9A4A9902C000C0FCCF87E090E024
:1027D0004A9B0EC0019751F4529A5A9AE881F981A6
:1027E00081E08083789481E090E031C000C0F0CF38
:1027F0006D81662381F08E819F810E949F128111DD
:102800000AC0529A5A9AE881F98182E080837894CA
:1028100082E090E01CC00E94671280E28A95F1F786
:102820005A98529A40E14A95F1F76A81662321F05D
:102830008B819C810E94FF120E946F12E881F981B6
:102840001082789480E090E002C084E090E0DF9114
:10285000CF911F910F9108959093400280933F0272
:102860000895E0913F02F0914002309721F00190ED
:10287000F081E02D099480E00895E0913F02F0910D
:102880004002309721F00280F381E02D09940895F1
:1028900020913D0230913E022817390771F0909344
:1028A0003E0280933D02E0913F02F091400230975A
:1028B00021F00680F781E02D0994089520913B02D4
:1028C00030913C022817390771F090933C028093B5
:1028D0003B02E0913F02F0914002309721F00084EA
:1028E000F185E02D0994089585B7806885BF85B787
:1028F000806885BF089508950C947B140C947C1413
:102900000C947B140C947B140E9474140E94801409
:102910000C947E140C9487070E94ED200E942F06D1
:102920000E9448210E94960E0C948214AF92BF928E
:10293000CF92DF92EF92FF920F931F93CF93DF938B
:10294000CDB7DEB72A970FB6F894DEBF0FBECDBF66
:102950000E94C0060E948A14811111C08FEF8983E2
:102960008A831B820E94F6208160782F9D838C834E
:1029700049815A816B818D810E942E1540C082E46D
:10298000A82E82E0B82E00E010E0C02E802F0E941A
:102990001A06E82EF501D1905F01D82631F40F5FB9
:1029A0001F4F0A30110589F7D9CF8091CC0281FDE4
:1029B0000E94200680E0FF24F3949D2D9F21D1F0FA
:1029C0008E83CF82EF2081E009F480E088870E9427
:1029D000F6208160782F9A8789874E815F8168858C
:1029E0008A850E942E15F801EE5BFD4F8081F82646
:1029F000F08205C08F5FFF0C8830F9F6D0CF0E94BF
:102A0000CE0E0E943114909141028917B1F00E94BC
:102A10003114809341022A960FB6F894DEBF0FBEA0
:102A2000CDBFDF91CF911F910F91FF90EF90DF907D
:102A3000CF90BF90AF900C94B4032A960FB6F89441
:102A4000DEBF0FBECDBFDF91CF911F910F91FF90E1
:102A5000EF90DF90CF90BF90AF900895CF93DF932A
:102A6000CDB7DEB72B970FB6F894DEBF0FBECDBF44
:102A70004F83588769877A878B87DE01119686E0B6
:102A8000FD0111928A95E9F785E0FE0137960190E4
:102A90000D928A95E1F749815A816B817C818D8104
:102AA0009E810E94B51B2B960FB6F894DEBF0FBE19
:102AB000CDBFDF91CF910895FC01808191810E946B
:102AC000891E0895CF93882309F4A1C0C82F8238A6
:102AD000C1F40E94311481FD9AC069E380912701FD
:102AE000909128010E9462200E94161F2FEF81EE14
:102AF00094E0215080409040E1F700C0000069E37D
:102B000019C0833801F50E94311480FD80C063E54F
:102B100080912701909128010E9462200E94161F37
:102B20002FEF81EE94E0215080409040E1F700C00B
:102B3000000063E580912701909128010E946420A4
:102B4000CF910C94161F8438C1F40E94311482FD79
:102B50005EC067E480912701909128010E94622065
:102B60000E94161F2FEF81EE94E02150804090408C
:102B7000E1F700C0000067E4DDCF8CEF8C0F813AF5
:102B8000F8F48C2F0E940C22811141C06C2F80918F
:102B90002701909128010E942C20882349F06C2F56
:102BA00080912701909128010E9464200E94161FA5
:102BB0006C2F80912701909128010E946220C0CF44
:102BC00080E28C0F883048F4C77081E001C0880F24
:102BD000CA95EAF70E94CB1EB3CFEBE5EC0FE330CA
:102BE00040F4F0E0E053FE4F808190E0CF910C94F0
:102BF0004814C85AC73158F4EC2FF0E0EE0FFF1F0D
:102C0000EE55FE4F80819181CF910C945E14CF914F
:102C10000895882309F45BC0682F823879F40E94F4
:102C2000311481FF54C069E38091270190912801FC
:102C30000E9462200E94161F69E310C08338B1F41D
:102C40000E94311480FF43C063E580912701909179
:102C500028010E9462200E94161F63E580912701CF
:102C6000909128010E9464200C94161F843879F4F6
:102C70000E94311482FF2BC067E48091270190915C
:102C800028010E9462200E94161F67E4E7CF8CEFA4
:102C9000860F813A18F380E2860F883048F4677017
:102CA00081E001C0880F6A95EAF70E94D11EDCCF4F
:102CB0008BE5860F833020F480E090E00C9448147C
:102CC000685A673120F480E090E00C945E14089517
:102CD000CF93C82F0E946215C93349F42FEF87EEB6
:102CE00093E0215080409040E1F700C000008C2F1D
:102CF000CF910C940916882321F00E94CB1E0C94CE
:102D0000161F0895882321F00E94D11E0C94161FCF
:102D10000895CF92DF92EF92FF920F931F93CF937C
:102D2000DF937C01062FC72FFC01158112951F70C0
:102D3000D281D1110E94E81E0E94C11E882399F001
:102D4000DD2389F08C2F807F803421F080E2800F9A
:102D5000883048F082E00E94601F0E94C11E91E00E
:102D6000D82ED92601C0D12CCC2EC2948FE0C822F7
:102D70008C2D90E0FC01E659FF4F0C9449298C2FD3
:102D8000807FCF70882311F0C295C07FDD2399F03A
:102D9000CC2309F482C180E2800F883010F0011149
:102DA00004C08C2F0E94CB1E03C08C2F0E94DB1E00
:102DB0000E94161F72C1802F0E940916CC2309F4AD
:102DC00091C180E2800F883010F0011104C08C2F77
:102DD0000E94D11E03C08C2F0E94E11E0E94161F6C
:102DE00081C18C2F807FCF70803211F0C295C07F5F
:102DF000002319F00130C9F022C0DD2371F0112346
:102E000041F0113031F40E94FB1E8C2B0E94031FF5
:102E100069C10E94FB1E8C2B1DC0112319F01130BB
:102E200009F460C10E940C1F25C0DD2321F016307B
:102E300008F058C10EC0153008F054C11BC0DD2386
:102E400061F0112331F0F701858180FF26C18F7079
:102E500085838C2F0E947B1645C1112359F00933BD
:102E600009F02CC1FFEF27EE83E0F15020408040B5
:102E7000E1F722C18C2F0E94821634C18C2F8695D7
:102E80008695837019F0813061F02CC1DD2321F02B
:102E9000802F9C2F937002C080E090E00E94481425
:102EA00029C1DD2321F0802F9C2F937002C080E088
:102EB00090E00E945E141EC18C2F837009F045C003
:102EC000D11114C1402F429546954770440F440FCD
:102ED000602F6F70862F90E0A0E0B0E0042E04C059
:102EE000880F991FAA1FBB1F0A94D2F704FF10C0B6
:102EF0000FE010E020E030E004C0000F111F221F9F
:102F0000331F4A95D2F7009510952095309503C050
:102F100000E010E09801C695C695C370BC01CD01D4
:102F2000602B712B822B932BC23049F058F4C130A7
:102F300019F00E94061DDAC00E94F41CD7C00E943E
:102F4000181DD4C00E94F21CD1C0DD2319F08C2FB3
:102F5000817001C08695882309F4C8C0402F42952E
:102F600046954770440F440F602F6F70862F90E096
:102F7000A0E0B0E0042E04C0880F991FAA1FBB1F59
:102F80000A94D2F704FF10C00FE010E020E030E018
:102F900004C0000F111F221F331F4A95D2F700955E
:102FA00010952095309503C000E010E09801C6957B
:102FB000C695C370BC01CD01602B712B822B932B66
:102FC000C23049F058F4C13019F00E94CB1D8EC0B8
:102FD0000E94B91D8BC00E94DD1D88C00E942C1D5F
:102FE00085C0CF70DD2339F08C2F0E94521D802FB9
:102FF0000E947B167BC0802F0E9482168C2F0E941D
:10300000731D74C0023F01F128F4003F41F0013FFD
:10301000A1F03FC0033FF9F0043F39F13AC0DD238E
:1030200041F0153008F05EC08C2F8F710E94981D02
:1030300059C0163008F056C0F7CFDD2339F08C2F79
:103040008F710E94521D4EC0DD23C9F38C2F8F71EA
:103050000E94731D47C0DD2329F08C2F8F710E94C1
:103060003D1D40C00E94381D3DC0DD2349F0CF7199
:103070008C2F0E94521D63E08C2F0E944B1F32C088
:1030800081E00E94601F123068F182E00E94601FA0
:1030900029C0DD2331F0112391F2802F0E946215A7
:1030A00021C0112399F2093349F49FEFE7EEF3E0D1
:1030B0009150E040F040E1F700C00000802F0E94F6
:1030C000091610C04C2F4F70602FC7010E941004CA
:1030D0000E94631C0FC04C2F4F70602FC7010E94CD
:1030E000130408C088EF8C0D843020F40E94311442
:1030F0000E94B403DD20C9F00E94BD1E80FD15C0F2
:10310000F70112820E94B71E0E94521DC7010E9441
:10311000B6180E94B71EDF91CF911F910F91FF90BB
:10312000EF90DF90CF900C94731DDF91CF911F91A2
:103130000F91FF90EF90DF90CF9008950F931F9322
:10314000CF93DF93EC01688179818A810E94941E7C
:103150008C010E94EF1D0E94E01CB801CE010E946C
:103160008916DF91CF911F910F910895CF93DF932F
:10317000EC01988189812B813C81232B31F08F3F99
:1031800031F481E09F3F19F403C081E001C080E089
:1031900080FD19C0CE010E94CD0381110CC00E9498
:1031A000C11E882381F08A81882369F082E0DF9143
:1031B000CF910C94601FCE010E949E18CE01DF912A
:1031C000CF910C949803DF91CF9108950E94E81E4F
:1031D0000E94F81E0E94161F80E090E00E94481492
:1031E00080E090E00C945E1480912701909128017A
:1031F0000E9466200C94E6180E94D81E0C94F418C5
:10320000E92FE295EF704E2F50E0FA013297EE3041
:10321000F105B0F4E658FF4F0C944929803F91F036
:1032200018F4883E68F40EC0843F51F40BC0883E09
:1032300048F0813F29F406C093FB882780F9089560
:1032400080E0089581E008950E94891E0E9400197F
:103250000895CF93DF9300D000D01F92CDB7DEB793
:103260000F900F900F900F900F90DF91CF910895D6
:10327000CF93DF9300D000D000D0CDB7DEB7269635
:103280000FB6F894DEBF0FBECDBFDF91CF9108958A
:103290001F93CF93DF93C0914D0216E080914E02B1
:1032A000C81799F0D0E01C9FF0011D9FF00D11246C
:1032B000E15BFD4F40815181628173818481958101
:1032C0000E9438192196C770E9CFDF91CF911F91E5
:1032D000089540917F025091800260918102709127
:1032E000820280918302909184020C9438190F938A
:1032F0001F93CF93DF938091840282958F7009F0A2
:103300005DC080918102882309F458C080914D02EC
:1033100010914E0260917F0270918002C0918202F2
:10332000D091830291E06F3F09F090E0292F06E0F1
:10333000811709F443C0209721F07F3F21F030E04E
:1033400003C031E001C0322F90E030FD34C0089F4F
:10335000F001099FF00D1124DF01A15BBD4F119613
:103360003C911197371327C03C91361324C0129615
:103370003C91129731111FC013964D915C91149797
:103380004C1B5D0B483C5105B0F4809184028F705A
:10339000806180938402EC5AFD4F80818F70806140
:1033A00080838FE792E00E94B618DF91CF911F9142
:1033B0000F910C94481901968770BACFDF91CF9185
:1033C0001F910F9108959F92AF92BF92CF92DF927B
:1033D000EF92FF920F931F93CF93DF93CDB7DEB79A
:1033E00061970FB6F894DEBF0FBECDBF8C0185E0AC
:1033F000F801DE011D9601900D928A95E1F7F80122
:1034000040815181E28090917F0260918002209101
:103410008202309183022115310531F06F3F31F482
:1034200081E09F3F19F403C081E001C080E0F82FE4
:10343000F1709F2E80FD46C1F801A380B4808FE714
:10344000C82E82E0D82EF0908102F501E21BF30B2A
:10345000FF2009F4DFC080918402E83CF10508F008
:103460009BC0282F207F09F052C0561313C0491368
:1034700011C0FE2CE1100EC08F7080618093840219
:103480000E946919C6010E94B61880918402F80151
:10349000858358C1AB2831F05F3F31F481E04F3F65
:1034A00019F403C081E001C080E080FD03C081E029
:1034B0008E2502C080E090E0F82FF170FF2E80FF93
:1034C0001CC080914D0220914E0236E0821709F413
:1034D00017C190E0389FF001399FF00D1124E15B96
:1034E000FD4F6181561306C06081461303C062819F
:1034F000E61203C001968770E9CFFE2CEE2009F496
:1035000021C1809184028160809384025AC0561345
:1035100006C0491304C0E11002C0F8019FC04D87E6
:103520005E878D859E850E942419882379F1EE207F
:1035300069F120918402822F82958F7090E002972A
:1035400074F080917F029091800298878F83198612
:10355000BB86AA862C87CE0107960E94B61886E005
:10356000F801AFE7B2E001900D928A95E1F70E9471
:1035700077190E9469190DC0561729F14D875E878A
:103580008D859E850E94241981112CC0C8010E943E
:10359000B618FF24F394D6C0282F207F69F77A2D20
:1035A000B98AA88A6E2D89890E9429198FE792E02D
:1035B0000E94B61886E0F60111928A95E9F70E94FA
:1035C0006919F12CBFC04913D9CFE110D7CFF80149
:1035D0008583C8010E94B61886E0F60111928A958B
:1035E000E9F7B0C0EE2091F220918402822F8295FB
:1035F0008F7090E002970CF4B2CF80917F0290918F
:1036000080029A8389831B82BD82AC822E83CE0185
:103610000196A3CFE83CF10508F047C0FE2CEE2050
:1036200009F4B4CF561330C049132EC02091840240
:1036300020FD21C0822F82958F70482F50E04115C8
:103640005105C9F0F80125834F30510541F08F5FD6
:10365000982F9295907F822F8F70892B8583C80138
:103660000E94B61886E0F801AFE7B2E001900D9233
:103670008A95E1F742C086E0F801AFE7B2E0019039
:103680000D928A95E1F75EC04D875E878D859E8598
:103690000E942419811163CF8091840281608093FC
:1036A0008402C8010E94B6184DC07A2DB98AA88A32
:1036B0006E2D89890E94291986E0F60111928A955A
:1036C000E9F71BC0EE2009F461CF4D875E878D8539
:1036D0009E850E942419F82E882309F457CF86E08E
:1036E000F801AFE7B2E001900D928A95E1F78FE71C
:1036F00092E00E945C150E9477190E94691922C00D
:103700004D875E878D859E850E94891E292F229573
:103710002F70223028F49F7039F0811105C00BC042
:10372000243028F49F7049F4805E883020F0C8016E
:103730000E94B6189F2CF92C05C0F8019581907F46
:1037400099F7F9CF8F2D61960FB6F894DEBF0FBEB3
:10375000CDBFDF91CF911F910F91FF90EF90DF9040
:10376000CF90BF90AF909F9008951F93CF93DF931A
:10377000CDB7DEB72C970FB6F894DEBF0FBECDBF26
:103780004F83588769877A878B879C87CE010796F6
:103790000E94E3198823D1F09F8188852A853B8583
:1037A000232B31F08F3F31F481E09F3F19F403C0A8
:1037B00081E001C080E080FD47C04F815885698568
:1037C0007A858B859C850E9438193EC086E0FE0173
:1037D0003796DE01119601900D928A95E1F7FF81EF
:1037E000E8856A857B856115710531F0EF3F31F41D
:1037F00081E0FF3F19F403C081E001C080E080FD5B
:1038000023C020914E0230E0C901019687709927AC
:1038100040914D0250E084179507F1F1F983EA8356
:103820007D836C8396E0929FD001939FB00D11240D
:10383000A15BBD4FFE01319601900D929A95E1F783
:1038400080934E020E94481916E080914D0290919B
:103850004E02891771F1189FC0011124815B9D4FA1
:103860000E94E319882329F1E0914D021E9FF00187
:103870001124E15BFD4F408151816281738184811C
:1038800095810E94381980914D0290E001968770D1
:10389000992780934D02D9CF0E94FC1810924E02B6
:1038A00010924D02EFE7F2E086E0DF011D928A956B
:1038B000E9F72C960FB6F894DEBF0FBECDBFDF91AF
:1038C000CF911F910895EF92FF920F931F93CF9383
:1038D000DF938C01892B09F46CC0F12CEE24E39466
:1038E000E8012196F8018491843740F4843008F08F
:1038F00051C0813081F0823019F15BC0853709F405
:1039000044C0A8F19CE7980F903708F052C08F7719
:103910000E94091641C00E5F1F4FFE01849190E284
:10392000980F983050F48770FE2D01C0FF0F8A95D4
:10393000EAF78F2F0E94EB1E14C00E9462152DC063
:103940000E5F1F4FFE01849190E2980F983060F453
:103950008770FE2D01C0FF0F8A95EAF78F2F0E9416
:10396000F11E0E94161F19C00E94091616C00E5F94
:103970001F4FFE01C491CC2381F08FE99FE0019796
:10398000F1F700C00000C150F6CF0E5F1F4FFE01DF
:10399000F49003C00E9462158E018F2D882309F4D4
:1039A0009FCFEFE9FFE03197F1F700C000008150B1
:1039B000F5CFDF91CF911F910F91FF90EF90089578
:1039C000089508950C94E11C0C94E21C0E94E41CE0
:1039D0006093BB027093BC028093BD029093BE02C1
:1039E0000C94E6180C94E61C0F931F930091BB02F5
:1039F0001091BC022091BD023091BE02602B712B50
:103A0000822B932B1F910F910C94E61C0F931F9305
:103A10000091BB021091BC022091BD023091BE0208
:103A200060237123822393231F910F910C94E61C32
:103A30000F931F930091BB021091BC022091BD0215
:103A40003091BE0260277127822793271F910F9123
:103A50000C94E61C0C94E11C0E942A1D6093B70292
:103A60007093B8028093B9029093BA020C94E6184E
:103A700060E070E0CB010C942C1D0F931F9341E08C
:103A800050E060E070E08A019B0104C0000F111F4C
:103A9000221F331F8A95D2F7C901B8011F910F91D8
:103AA0000C942C1D0F931F9341E050E060E070E0F8
:103AB00004C0440F551F661F771F8A95D2F7809167
:103AC000B7029091B802A091B902B091BA028A01EE
:103AD0009B01082B192B2A2B3B2BC901B8011F91E5
:103AE0000F910C942C1D0F931F9341E050E060E068
:103AF00070E004C0440F551F661F771F8A95D2F7E8
:103B000040955095609570958091B7029091B8025C
:103B1000A091B902B091BA028A019B01082319232E
:103B20002A233B23C901B8011F910F910C942C1D2E
:103B30000F931F9341E050E060E070E004C0440F39
:103B4000551F661F771F8A95D2F78091B702909113
:103B5000B802A091B902B091BA028A019B0108276C
:103B600019272A273B27C901B8011F910F910C94EF
:103B70002C1D0F931F930091B7021091B802209152
:103B8000B9023091BA02602B712B822B932B1F91BB
:103B90000F910C942C1D0F931F930091B70210915D
:103BA000B8022091B9023091BA02602371238223B6
:103BB00093231F910F910C942C1D0F931F93009131
:103BC000B7021091B8022091B9023091BA02602771
:103BD0007127822793271F910F910C942C1D089514
:103BE00028E0929F800D1124E82FE695E695E69552
:103BF000877051E001C0550F8A95EAF785E0E89F8C
:103C0000F0011124EB57FD4F20E030E070E04081DF
:103C1000CB01022E02C0969587950A94E2F7817037
:103C2000819584278523842781932F5F3F4F2530FB
:103C3000310569F7089528E0929F800D1124682FBF
:103C4000669566956695982F977085E0689FB00198
:103C5000112440E050E080E0FB01E40FF51FEB573A
:103C6000FD4F208130E0092E02C0369527950A9439
:103C7000E2F721703327042E01C0220F0A94EAF7DD
:103C8000822B4F5F5F4F4530510531F70895BF924A
:103C9000CF92DF92EF92FF920F931F93CF93DF9318
:103CA0008C01C090B702D090B802E090B902F090B9
:103CB000BA028091BB029091BC02A091BD02B0916A
:103CC000BE02C82AD92AEA2AFB2ACFE1D0E0D701CE
:103CD000C6010C2E04C0B695A795979587950A94B2
:103CE000D2F780FD04C0219790F7B12C07C0BC2EFD
:103CF000B8018C2F0E9431040197A9F38B2DDF911D
:103D0000CF911F910F91FF90EF90DF90CF90BF90D8
:103D10000895CF93DF93EC010E94471EBE010E94DD
:103D20003104DF91CF9108951F93CF93DF93EB017F
:103D300090914C02992321F0CB010E94891E13C05F
:103D4000882349F0CB010E94471E182F682FCE010F
:103D50000E94F01D04C0CB010E941B1E182FBE0143
:103D6000812F0E943104DF91CF911F91089580919E
:103D7000BF0285958595859508958091BF028770CE
:103D800008959091BF02977081E009F480E0089552
:103D90008091CB0208959091CB02892B8093CB0226
:103DA000089580959091CB0289238093CB0208954A
:103DB0001092CB0208959091CA02892B8093CA0277
:103DC000089580959091CA0289238093CA0208952C
:103DD0001092CA0208959091C902892B8093C9025A
:103DE000089580959091C90289238093C90208950E
:103DF0001092C90208958091C002089508950C940C
:103E0000FE1E0C94FF1E9091C002981721F0809323
:103E1000C0020C94011F08958091C002882329F0EC
:103E20001092C00280E00C94011F0895E0912701D8
:103E3000F09128018091CB028083E0912701F091DD
:103E4000280190818091CA02892B8083E09127010B
:103E5000F091280190818091C902892B8083809103
:103E6000C002882381F0E0912701F0912801908120
:103E7000892B808380912701909128010E94202026
:103E800081110E940C1F80912701909128010C94B0
:103E90003D140C94FE1E98E0899F90011124262B5E
:103EA0002093BF020E94521D8091BF028595859587
:103EB00085950C94491F1092BF0280E00C94491F15
:103EC0002091BF02809582238093BF02982F977024
:103ED00079F430E0482F082E000C550B24173507D5
:103EE00039F08595859585950E94731D0C945B1F0F
:103EF000089580E090E00E94C62921E08C3E9E4F0C
:103F000009F020E0822F089582E090E00C94B82917
:103F100083E090E00C94B829CF9384E090E00E9475
:103F2000B829C82F81E290E00E94B8292C2F30E0F8
:103F3000A901582BCA01CF910895CF93C92F682F9B
:103F400084E090E00E94CC296C2F81E290E0CF9138
:103F50000C94CC29AB01BC018FE090E00C94DE29DD
:103F6000AB01BC0183E190E00C94DE2960E070E0DD
:103F7000CB010C94B01F60E070E0CB010E94AA1F3F
:103F80000C94B61F6CEE7EEF80E090E00E94EA2970
:103F900060E082E090E00E94CC2960E083E090E065
:103FA0000E94CC291092BB021092BC021092BD025A
:103FB0001092BE0260E084E090E00E94CC2960E0B4
:103FC00081E290E00E94CC2960E085E090E00E94D0
:103FD000CC2960E086E090E00E94CC296FEF87E07A
:103FE00090E00E94CC2940E050E0BA0188E090E0E7
:103FF0000E94DE2960E08DE090E00E94CC2940E044
:1040000050E0BA0188E190E00E94DE2960E087E19B
:1040100090E00E94CC2940E050E0BA018CE190E0B1
:104020000E94DE2960E080E290E00E94CC290C949E
:10403000BB1F0C94C21F682F8EE090E00C94CC291B
:10404000FC01329697E080E0915029F021912223E3
:10405000D9F38F5FF9CF0895662349F0FC013296BA
:1040600008962191621729F0E817F907D1F780E047
:10407000089581E008959C01FC0132969FEF80E055
:104080004191461789F09F3F19F4411101C0982FC3
:104090008F5F8630A9F79F3F39F0F901E90FF11DD5
:1040A00097FDFA956283089508959C012A5F3F4F1A
:1040B000FC014281461301C01282019682179307C8
:1040C000B9F708950C943B200C945520029626E0F5
:1040D000FC0111922A95E9F7089508950C946D203A
:1040E0000C946D20CF930E9470200E94C0060E9405
:1040F0006E20C0E08C2F0E941A06811104C0CF5F91
:10410000CA30C1F701C081E0CF9108950C946D20B1
:104110000C9486200E94882080912303843049F1EA
:104120001092CD0220E488E190E00FB6F894A895B3
:10413000809360000FBE2093600080E00E94B40373
:104140000E94882083B7817F846083BF83B78160AA
:1041500083BF7894889583B78E7F83BF0FB6F8941A
:10416000A895809160008861809360001092600043
:104170000FBE08950C946D200E94FC180E9431140B
:104180000E94B4030C94BA201F920F920FB60F92A4
:1041900011248F939F93AF93BF938091CD02811190
:1041A00013C08091190390911A03A0911B03B09141
:1041B0001C034196A11DB11D8093190390931A030E
:1041C000A0931B03B0931C03BF91AF919F918F915C
:1041D0000F900FBE0F901F90189582E084BD93E062
:1041E00095BD9AEF97BD80936E0008952FB7F89410
:1041F0008091190390911A03A0911B03B0911C03A5
:104200002FBF08959C014FB7F894809119039091A6
:104210001A03A0911B03B0911C034FBF821B930B89
:10422000089578941F920F920FB60F9211248F93D6
:104230009F93AF93BF938091190390911A03A0911C
:104240001B03B0911C030196A11DB11D809319039E
:1042500090931A03A0931B03B0931C03BF91AF91DB
:104260009F918F910F900FBE0F901F90189587E729
:1042700097E790930108809300089AE088E10FB6D1
:10428000F894A895809360000FBE90936000FFCFD4
:104290000E94791F811102C00E9419200E94841F70
:1042A0008093CC020E948C1F90931E0380931D0369
:1042B0000E94881F682F70E080E090E00C94F21C50
:1042C0000F931F9341E050E060E070E08A019B0192
:1042D00004C0000F111F221F331F8A95D2F7C90196
:1042E000B8010E94F21C1F910F910C94FC188B31A5
:1042F00009F468C058F58B3009F486C078F486302C
:1043000009F445C020F4853009F44BC07FC08730E4
:1043100009F44AC0883009F477C078C0803109F4C4
:1043200064C068F48E3009F071C08091CC0282FBC9
:10433000222720F991E0922790FB82F94CC0863128
:1043400009F462C0893109F45FC060C08A32E1F0CB
:1043500060F4873209F455C028F48E3108F456C051
:104360008D5150C08932E9F051C0833450F48A3302
:1043700008F045C0853309F444C0883309F444C0CB
:1043800045C08334F1F142C00E9419203DC08091A4
:10439000CC02817F8E7F8093CC0281E08093CE021D
:1043A00008950E94BE0330C08091CC02982F909552
:1043B000917090FB80F98093CC02911125C0897F88
:1043C000877F10C08091CC0281FB222720F991E0E9
:1043D000922790FB81F98093CC029923A9F08091D8
:1043E000CC0281608093CC020FC08091CC0283FB11
:1043F000222720F991E0922790FB83F9ECCF895393
:1044000001C080E00E94602181E0089580E008956D
:1044100080E008950C940822CF93C82F8091CE029B
:10442000882319F0813031F02BC00E94C81E8232DF
:1044300049F504C00E94C81E823261F48C2F0E948C
:104440000A22811104C08C2F0E94772117C081E0BD
:1044500090E014C08C2F0E94082281110EC0C4313C
:1044600049F018F4CB3049F00FC0C93219F0C83305
:1044700021F00AC01092CE0207C081E0817006C010
:104480001092CE0280E002C080E0F8CFCF91089574
:104490008091D70208950895CF93DF9300D01F92A3
:1044A000CDB7DEB790912303943019F589837B83D0
:1044B0006A8382E08093E9008FEF9091E800815059
:1044C00095FD06C095ED9A95F1F700008111F5CFA5
:1044D0008091E80085FF0DC040E050E063E070E0AF
:1044E000CE0101960E9469248091E8008E77809326
:1044F000E8000F900F900F90DF91CF910895CF9328
:10450000DF93EC010E944C24823011F0843031F4AE
:10451000BE0184E0DF91CF910C944C22DF91CF91CA
:104520000895BC0183E00C944C22CF93DF93EC01FF
:104530000E944C24823011F0843039F581E0809360
:10454000E9008FEF9091E800815095FD06C095ED50
:104550009A95F1F700008111F5CF8091E80085FF71
:1045600014C040E050E068E070E0CE010E94692491
:104570008091E8008E778093E80088E0FE01AFEC40
:10458000B2E001900D928A95E1F7DF91CF91089505
:1045900080912203811109C00E94FA250E945726AA
:1045A0008091E20084608093E200089510922203DB
:1045B0000895089508950C94BC2042E061EC81E0D8
:1045C0000E94732542E261EC82E00C947325809195
:1045D0002503833009F460C030F4813071F08230FB
:1045E00009F499C008958A3009F485C08B3009F424
:1045F0006BC0893009F0A7C020C080912403813AA4
:1046000009F0A1C08091E800877F8093E800809145
:10461000280390912903892B21F468E08FEC92E024
:1046200003C060E080E090E070E00E94B4248091DC
:10463000E8008B778093E80008958091240381320D
:1046400009F081C08091280390912903029708F016
:104650007AC08091E800877F8093E8008091E8002D
:1046600082FD05C0809123038111F8CF6CC0209199
:10467000F3008091F20090E0922B029729F4809150
:10468000F1008B7F813021F48091F1008093D7027B
:104690008091E8008B7753C080912403813A09F020
:1046A00052C08091280390912903892B09F04BC0B7
:1046B0008091E800877F8093E8008091E80080FF88
:1046C000FCCF8091330136C0809124038132D9F52B
:1046D0008091280390912903892BA9F58091E80006
:1046E000877F8093E8000E94A8258091260380930D
:1046F00033010C94FC1880912403813221F58091C0
:10470000E800877F8093E8000E94A8258091270316
:104710008093D802089580912403813AA1F4809176
:10472000E800877F8093E8008091E80080FFFCCF5D
:104730008091D8028093F1008091E8008E77809379
:10474000E8000C94A825089584B7877F84BF0FB62E
:10475000F894A89580916000886180936000109221
:1047600060000FBE90E080E80FB6F894809361007F
:10477000909361000FBE0E9484140E94FA250E944B
:1047800057268091E20084608093E20078940E9432
:10479000EC280E948C1489E291E00E942C148091F4
:1047A0002303853069F40E948A20809121038823A5
:1047B000B1F30E947220882391F30E945324EFCF1B
:1047C0000E949614ECCF0C94E523292F3327233035
:1047D0003105C9F060F42130310581F02230310516
:1047E00009F04AC08BE390E024E535E049C021326E
:1047F000310511F12232310579F13EC082E190E0BC
:104800002FE835E03DC099278130910561F040F0F7
:104810008230910559F0039779F5EEE1F5E008C093
:10482000E0E5F5E005C0E0E3F5E002C0E4E2F5E034
:10483000849190E09F0124C06115710541F06130C1
:104840007105D1F489E090E02FE735E019C089E0E7
:1048500090E026E635E014C06115710541F0613045
:10486000710551F482E390E021EA35E009C080E46B
:1048700090E023ED35E004C080E090E020E030E0FF
:10488000FA0131832083089580912303843011F04D
:1048900081E0089582E008958091D902811102C0DB
:1048A0000C944424089580E189BD82E189BD09B456
:1048B00000FEFDCF8091D8008F7D8093D80080913D
:1048C000E00082608093E0008091E00081FDFCCFF9
:1048D0000895CF92DF92EF92FF920F931F93CF93A1
:1048E000DF93EC018B017A010E94C725811133C04F
:1048F000E114F10439F0F70180819181081B190B53
:10490000C80FD91FC12CD12C0115110519F18091A7
:10491000E80085FD16C08091E8008E778093E8005E
:10492000E114F10449F0F70180819181C80ED91E8C
:10493000D182C08285E00FC00E94C725882321F361
:104940000AC089918093F10001501109FFEFCF1A3D
:10495000DF0ADACF80E0DF91CF911F910F91FF90B6
:10496000EF90DF90CF90089520912A0330912B0390
:104970002617370748F06115710539F42091E800D2
:104980002E772093E80001C0B901FC0120E06115F9
:10499000710579F1809123038823F1F18530F1F1DC
:1049A0008091E80083FD3CC08091E80082FD2EC02C
:1049B0008091E80080FFEBCF2091F3008091F2001E
:1049C00090E0922B6115710551F08830910538F413
:1049D00021912093F100615071090196F3CF21E0FC
:1049E000089709F020E08091E8008E778093E80036
:1049F000CECF2111CFCF0AC080912303882361F04D
:104A0000853061F08091E80083FD0AC08091E80064
:104A100082FFF2CF80E0089582E0089583E0089558
:104A200081E0089520912A0330912B032617370740
:104A300048F06115710539F42091E8002E77209334
:104A4000E80001C0B901FC0120E06115710591F198
:104A500080912303882309F440C0853009F43FC0C6
:104A60008091E80083FD3DC08091E80082FD2FC069
:104A70008091E80080FFE9CF2091F3008091F2005F
:104A800090E0922B6115710559F08830910540F442
:104A900024912093F1003196615071090196F2CF73
:104AA00021E0089709F020E08091E8008E7780935C
:104AB000E800CBCF2111CCCF0AC0809123038823FB
:104AC00061F0853061F08091E80083FD0AC080913B
:104AD000E80082FFF2CF80E0089582E0089583E04D
:104AE000089581E00895982F973068F59093E90034
:104AF000981739F07091EC002091ED005091F00082
:104B000003C0242F762F50E021FD02C09F5FECCF21
:104B10003091EB003E7F3093EB003091ED003D7F14
:104B20003093ED003091EB0031603093EB007093E7
:104B3000EC002093ED005093F0002091EE0027FD53
:104B4000E5CF80E008958F708093E90081E00895BB
:104B50008091240387FF11C08091E80082FD05C089
:104B6000809123038111F8CF11C08091E8008B77E9
:104B70000BC080912303882349F08091E80080FFD7
:104B8000F8CF8091E8008E778093E8000895209117
:104B9000E4003091E50095E64091EC00842F8170AF
:104BA00040FF23C08091E80080FD1DC08091230359
:104BB000882399F0853099F08091EB0085FD11C034
:104BC0004091E4005091E5002417350729F39150F6
:104BD00011F09A01E1CF84E0089582E0089583E026
:104BE000089581E0089580E008954091E80042FF33
:104BF000DDCF08950E9468260E947026E0EEF0E066
:104C0000808181608083E8EDF0E080818F77808310
:104C100019BCA7EDB0E08C918E7F8C9380818F7E44
:104C200080831092220308950F931F93CF93DF93F5
:104C30000E9468260E947026C8EDD0E088818F7798
:104C4000888388818068888388818F7D888319BC68
:104C50001092230310921F0310922103109220033D
:104C600000EE10E0F80180818B7F80838881816075
:104C7000888342E060E080E00E947325E1EEF0E08E
:104C800080818E7F8083E2EEF0E08081816080838E
:104C9000808188608083F80180818E7F8083888115
:104CA00080618883DF91CF911F910F910895E8ED86
:104CB000F0E080818F7E8083E7EDF0E0808181608D
:104CC000808384E082BF81E0809322030C941426C9
:104CD000E8EDF0E080818E7F80831092E2000895FD
:104CE0001092DA001092E10008951F920F920FB611
:104CF0000F9211242F933F934F935F936F937F9362
:104D00008F939F93AF93BF93EF93FF938091E100B5
:104D100082FF0BC08091E20082FF07C08091E1001A
:104D20008B7F8093E1000E94EB288091DA0080FF66
:104D30001FC08091D80080FF1BC08091DA008E7F59
:104D40008093DA008091D90080FF0DC080E189BD99
:104D500082E189BD09B400FEFDCF81E08093230389
:104D60000E94C82205C019BC109223030E94D622BB
:104D70008091E10080FF19C08091E20080FF15C0A2
:104D80008091E2008E7F8093E2008091E20080615A
:104D90008093E2008091D80080628093D80019BC93
:104DA00085E0809323030E94DA228091E10084FF52
:104DB00030C08091E20084FF2CC080E189BD82E197
:104DC00089BD09B400FEFDCF8091D8008F7D80930E
:104DD000D8008091E1008F7E8093E1008091E20015
:104DE0008F7E8093E2008091E20081608093E200F8
:104DF00080911F03882311F084E007C08091E300B5
:104E000087FD02C081E001C083E0809323030E94FC
:104E1000DB228091E10083FF29C08091E20083FFC3
:104E200025C08091E100877F8093E10082E080933C
:104E3000230310921F038091E1008E7F8093E10095
:104E40008091E2008E7F8093E2008091E200806199
:104E50008093E20042E060E080E00E947325809150
:104E6000F00088608093F0000E94D922FF91EF91BA
:104E7000BF91AF919F918F917F916F915F914F9172
:104E80003F912F910F900FBE0F901F9018951F927A
:104E90000F920FB60F9211242F933F934F935F936E
:104EA0006F937F938F939F93AF93BF93CF93DF9332
:104EB000EF93FF93C091E900CF708091EC00D82F61
:104EC000D17080FDD0E81092E9008091F000877FDA
:104ED0008093F00078940E948B271092E9008091D3
:104EE000F00088608093F000CD2BCF70C093E90074
:104EF000FF91EF91DF91CF91BF91AF919F918F91F2
:104F00007F916F915F914F913F912F910F900FBEC5
:104F10000F901F9018951F93CF93DF93CDB7DEB7F7
:104F2000AA970FB6F894DEBF0FBECDBFE4E2F3E060
:104F30008091F100819323E0EC32F207C9F70E94DF
:104F4000E7228091E80083FF2EC180912403909195
:104F50002503492F50E04A30510508F024C1FA01D9
:104F6000E857FF4F0C944929803821F0823809F026
:104F70001AC108C08091200390912103992389F0E0
:104F800082600FC0809128038F70873008F00BC1BA
:104F90008093E9008091EB0085FB882780F91092CF
:104FA000E9009091E800977F9093E8008093F100EA
:104FB0001092F100D1C0282F2D7F09F0F4C0882372
:104FC00019F0823061F0EFC080912603813009F042
:104FD000EAC0933009F080E0809321032EC08091D5
:104FE000260381112AC0809128038F702FEF280F8C
:104FF000263008F0D8C08093E9002091EB0020FF14
:105000001CC0933021F48091EB00806214C0909119
:10501000EB0090619093EB0021E030E0A90102C029
:10502000440F551F8A95E2F74093EA001092EA0078
:105030008091EB0088608093EB001092E9008091F2
:10504000E800877F8093E8000E94A825ACC081110A
:10505000AAC0109126031F778091E3008078812BEE
:105060008093E3008091E800877F8093E8000E94AE
:10507000A8258091E80080FFFCCF8091E300806844
:105080008093E300111102C082E001C083E08093AD
:10509000230389C08058823008F085C080912603A0
:1050A000909127038C3D53E0950779F583E08A833F
:1050B0008AE289834FB7F894DE01139620E03EE040
:1050C00051E2E32FF0E050935700E49120FF03C03A
:1050D000E295EF703F5FEF708E2F90E0EA3010F0B6
:1050E000C79601C0C0968D939D932F5F243149F7D9
:1050F0004FBF8091E800877F8093E8006AE270E00C
:10510000CE0101960E94B42416C0609128037091CC
:105110002903AE014F5F5F4F0E94E323BC01892B3F
:1051200009F441C09091E800977F9093E80089814D
:105130009A810E9412258091E8008B778093E80085
:1051400032C0803881F58091E800877F8093E80045
:1051500080911F038093F1008091E8008E7772CFD9
:10516000811121C0809126039091270399270297EE
:10517000D4F48091E800877F8093E8008091260333
:1051800080931F030E94A82580911F03811106C0F0
:105190008091E30087FD02C081E001C084E080933C
:1051A00023030E94DD228091E80083FF0AC08091E2
:1051B000E800877F8093E8008091EB008062809315
:1051C000EB00AA960FB6F894DEBF0FBECDBFDF91FD
:1051D000CF911F9108950895CF9380912303882341
:1051E000A1F0C091E900CF709091EC00892F8170FF
:1051F00090FD80E8C82B1092E9008091E80083FDC3
:105200000E948B27CF70C093E900CF910895991B1E
:1052100079E004C0991F961708F0961B881F7A95AD
:10522000C9F78095089587FB082E062687FD81958E
:1052300067FD61950E9407290EF4919507FC819501
:105240000895AA1BBB1B51E107C0AA1FBB1FA617CD
:10525000B70710F0A61BB70B881F991F5A95A9F71F
:1052600080959095BC01CD01089597FB072E16F40B
:10527000009407D077FD09D00E94212907FC05D0B2
:105280003EF4909581959F4F0895709561957F4F5D
:105290000895EE0FFF1F0590F491E02D09948F9271
:1052A0009F92AF92BF92CF92DF92EF92FF92CF93F5
:1052B000DF93EC01688179818A819B816115710599
:1052C0008105910521F464E279ED8BE597E02DE10C
:1052D00033EF41E050E00E94002A49015A019B014E
:1052E000AC01A7EAB1E40E941F2A6B017C01ACEE7D
:1052F000B4EFA50194010E942D2ADC01CB018C0D95
:105300009D1DAE1DBF1DB7FF03C00197A109B04889
:1053100088839983AA83BB839F77DF91CF91FF9086
:10532000EF90DF90CF90BF90AF909F908F900895B7
:105330000E944F29089580E091E00E944F2908952E
:10534000A0E0B0E08093000190930101A0930201DE
:10535000B09303010895FC014150504030F001909A
:105360000616D1F73197CF01089588279927089518
:10537000F999FECF92BD81BDF89A992780B508951D
:10538000A6E1B0E044E050E00C94F229A8E1B0E0DE
:1053900042E050E00C94F229262FF999FECF92BDFD
:1053A00081BDF89A019700B4021639F01FBA20BDEA
:1053B0000FB6F894FA9AF99A0FBE08950396272F1C
:1053C0000E94CD290E94CC29252F0E94CD29242F6F
:1053D0000C94CD290196272F0E94CD290C94CC291D
:1053E000DC01CB01FC01F999FECF06C0F2BDE1BDA5
:1053F000F89A319600B40D9241505040B8F7089594
:10540000052E97FB1EF400940E94172A57FD07D023
:105410000E94322A07FC03D04EF40C94172A5095B0
:105420004095309521953F4F4F4F5F4F0895909590
:105430008095709561957F4F8F4F9F4F08950E9483
:10544000542AA59F900DB49F900DA49F800D911D8F
:1054500011240895B7FF0C941F2A0E941F2A821B53
:10546000930B0895A1E21A2EAA1BBB1BFD010DC0D0
:10547000AA1FBB1FEE1FFF1FA217B307E407F50704
:1054800020F0A21BB30BE40BF50B661F771F881FE0
:10549000991F1A9469F760957095809590959B0176
:1054A000AC01BD01CF010895A29FB001B39FC0011F
:1054B000A39F700D811D1124911DB29F700D811D40
:0A54C0001124911D0895F894FFCF08
:1054CA000100000001D90100DA0105DA01DF010853
:1054DA00E0010000000102000C000C0C01191A1B6B
:1054EA001C1D1E1F202122C102482295224B2291F7
:1054FA00227F2201E200E900EA00B500B600B70007
:10550A00CD008301CC008A01920194012102230279
:10551A0024022502260227022A02B300B4006F00E1
:10552A007000818283F4F5F6F73133323594669749
:10553A00C63400000000000001020202020606064C
:10554A000909090909090F0F0F0F0F0F151515186A
:10555A00191919191919191919192324252525256C
:10556A002525E200E900EA00B500B600B700CD0043
:10557A008301CC008A0192019401210223022402B0
:10558A002502260227022A02B300B4006F00700027
:04559A008182830087
:00000001FF
